{
  "_format": "hh-sol-artifact-1",
  "contractName": "BuyMyRoom",
  "sourceName": "contracts/BuyMyRoom.sol",
  "abi": [
    {
      "inputs": [],
      "stateMutability": "nonpayable",
      "type": "constructor"
    },
    {
      "anonymous": false,
      "inputs": [
        {
          "indexed": false,
          "internalType": "uint256",
          "name": "tokenId",
          "type": "uint256"
        },
        {
          "indexed": false,
          "internalType": "uint256",
          "name": "price",
          "type": "uint256"
        },
        {
          "indexed": false,
          "internalType": "address",
          "name": "owner",
          "type": "address"
        }
      ],
      "name": "HouseListed",
      "type": "event"
    },
    {
      "inputs": [],
      "name": "Airdrop",
      "outputs": [],
      "stateMutability": "nonpayable",
      "type": "function"
    },
    {
      "inputs": [
        {
          "internalType": "uint256",
          "name": "i",
          "type": "uint256"
        }
      ],
      "name": "buyHouse",
      "outputs": [],
      "stateMutability": "nonpayable",
      "type": "function"
    },
    {
      "inputs": [],
      "name": "getHouses",
      "outputs": [
        {
          "components": [
            {
              "internalType": "uint256",
              "name": "id",
              "type": "uint256"
            },
            {
              "internalType": "address",
              "name": "owner",
              "type": "address"
            },
            {
              "internalType": "uint256",
              "name": "listedTimestamp",
              "type": "uint256"
            },
            {
              "internalType": "uint256",
              "name": "price",
              "type": "uint256"
            }
          ],
          "internalType": "struct BuyMyRoom.House[]",
          "name": "",
          "type": "tuple[]"
        }
      ],
      "stateMutability": "view",
      "type": "function"
    },
    {
      "inputs": [],
      "name": "getManager",
      "outputs": [
        {
          "internalType": "address",
          "name": "",
          "type": "address"
        }
      ],
      "stateMutability": "view",
      "type": "function"
    },
    {
      "inputs": [],
      "name": "helloworld",
      "outputs": [
        {
          "internalType": "string",
          "name": "",
          "type": "string"
        }
      ],
      "stateMutability": "pure",
      "type": "function"
    },
    {
      "inputs": [
        {
          "internalType": "uint256",
          "name": "",
          "type": "uint256"
        }
      ],
      "name": "houses",
      "outputs": [
        {
          "internalType": "uint256",
          "name": "id",
          "type": "uint256"
        },
        {
          "internalType": "address",
          "name": "owner",
          "type": "address"
        },
        {
          "internalType": "uint256",
          "name": "listedTimestamp",
          "type": "uint256"
        },
        {
          "internalType": "uint256",
          "name": "price",
          "type": "uint256"
        }
      ],
      "stateMutability": "view",
      "type": "function"
    },
    {
      "inputs": [],
      "name": "manager",
      "outputs": [
        {
          "internalType": "address",
          "name": "",
          "type": "address"
        }
      ],
      "stateMutability": "view",
      "type": "function"
    },
    {
      "inputs": [],
      "name": "myERC20",
      "outputs": [
        {
          "internalType": "contract MyERC20",
          "name": "",
          "type": "address"
        }
      ],
      "stateMutability": "view",
      "type": "function"
    },
    {
      "inputs": [
        {
          "internalType": "uint256",
          "name": "id",
          "type": "uint256"
        },
        {
          "internalType": "uint256",
          "name": "price",
          "type": "uint256"
        }
      ],
      "name": "setOnSale",
      "outputs": [],
      "stateMutability": "nonpayable",
      "type": "function"
    }
  ],
  "bytecode": "0x60806040523480156200001157600080fd5b5033600160006101000a81548173ffffffffffffffffffffffffffffffffffffffff021916908373ffffffffffffffffffffffffffffffffffffffff1602179055506040516200006190620001c8565b6200006c9062000287565b604051809103906000f08015801562000089573d6000803e3d6000fd5b506000806101000a81548173ffffffffffffffffffffffffffffffffffffffff021916908373ffffffffffffffffffffffffffffffffffffffff16021790555060005b600a811015620001c1576040518060800160405280828152602001600160009054906101000a900473ffffffffffffffffffffffffffffffffffffffff1673ffffffffffffffffffffffffffffffffffffffff1681526020014281526020016064815250600260008381526020019081526020016000206000820151816000015560208201518160010160006101000a81548173ffffffffffffffffffffffffffffffffffffffff021916908373ffffffffffffffffffffffffffffffffffffffff16021790555060408201518160020155606082015181600301559050508080620001b890620002f7565b915050620000cc565b5062000344565b611d348062000f1783390190565b600082825260208201905092915050565b7f5a4a55546f6b656e000000000000000000000000000000000000000000000000600082015250565b60006200021f600883620001d6565b91506200022c82620001e7565b602082019050919050565b7f5a4a55546f6b656e53796d626f6c000000000000000000000000000000000000600082015250565b60006200026f600e83620001d6565b91506200027c8262000237565b602082019050919050565b60006040820190508181036000830152620002a28162000210565b90508181036020830152620002b78162000260565b9050919050565b7f4e487b7100000000000000000000000000000000000000000000000000000000600052601160045260246000fd5b6000819050919050565b60006200030482620002ed565b91507fffffffffffffffffffffffffffffffffffffffffffffffffffffffffffffffff8203620003395762000338620002be565b5b600182019050919050565b610bc380620003546000396000f3fe608060405234801561001057600080fd5b50600436106100935760003560e01c80636d3739c4116100665780636d3739c4146100fa578063aeda852f14610118578063d50095841461014b578063eddc426914610169578063fd5f33ec1461018557610093565b80630b8d27c3146100985780632f2f4859146100b45780633f6b6f2e146100d2578063481c6a75146100dc575b600080fd5b6100b260048036038101906100ad91906106b2565b6101a3565b005b6100bc6101dd565b6040516100c99190610782565b60405180910390f35b6100da61021a565b005b6100e46102a7565b6040516100f191906107e5565b60405180910390f35b6101026102cd565b60405161010f919061085f565b60405180910390f35b610132600480360381019061012d919061087a565b6102f1565b60405161014294939291906108b6565b60405180910390f35b610153610341565b60405161016091906107e5565b60405180910390f35b610183600480360381019061017e919061087a565b61036b565b005b61018d610507565b60405161019a9190610a1d565b60405180910390f35b8060026000848152602001908152602001600020600301819055504260026000848152602001908152602001600020600201819055505050565b60606040518060400160405280600b81526020017f68656c6c6f20776f726c64000000000000000000000000000000000000000000815250905090565b60008054906101000a900473ffffffffffffffffffffffffffffffffffffffff1673ffffffffffffffffffffffffffffffffffffffff166321860a05336040518263ffffffff1660e01b815260040161027391906107e5565b600060405180830381600087803b15801561028d57600080fd5b505af11580156102a1573d6000803e3d6000fd5b50505050565b600160009054906101000a900473ffffffffffffffffffffffffffffffffffffffff1681565b60008054906101000a900473ffffffffffffffffffffffffffffffffffffffff1681565b60026020528060005260406000206000915090508060000154908060010160009054906101000a900473ffffffffffffffffffffffffffffffffffffffff16908060020154908060030154905084565b6000600160009054906101000a900473ffffffffffffffffffffffffffffffffffffffff16905090565b60008054906101000a900473ffffffffffffffffffffffffffffffffffffffff1673ffffffffffffffffffffffffffffffffffffffff1663eb8571c8333060008054906101000a900473ffffffffffffffffffffffffffffffffffffffff1673ffffffffffffffffffffffffffffffffffffffff166370a08231336040518263ffffffff1660e01b815260040161040291906107e5565b602060405180830381865afa15801561041f573d6000803e3d6000fd5b505050506040513d601f19601f820116820180604052508101906104439190610a54565b6040518463ffffffff1660e01b815260040161046193929190610a81565b600060405180830381600087803b15801561047b57600080fd5b505af115801561048f573d6000803e3d6000fd5b5050505060006002600083815260200190815260200160002060030181905550336002600083815260200190815260200160002060010160006101000a81548173ffffffffffffffffffffffffffffffffffffffff021916908373ffffffffffffffffffffffffffffffffffffffff16021790555050565b60606000600a67ffffffffffffffff81111561052657610525610ab8565b5b60405190808252806020026020018201604052801561055f57816020015b61054c610639565b8152602001906001900390816105445790505b50905060005b600a8110156106315760026000828152602001908152602001600020604051806080016040529081600082015481526020016001820160009054906101000a900473ffffffffffffffffffffffffffffffffffffffff1673ffffffffffffffffffffffffffffffffffffffff1673ffffffffffffffffffffffffffffffffffffffff1681526020016002820154815260200160038201548152505082828151811061061357610612610ae7565b5b6020026020010181905250808061062990610b45565b915050610565565b508091505090565b604051806080016040528060008152602001600073ffffffffffffffffffffffffffffffffffffffff16815260200160008152602001600081525090565b600080fd5b6000819050919050565b61068f8161067c565b811461069a57600080fd5b50565b6000813590506106ac81610686565b92915050565b600080604083850312156106c9576106c8610677565b5b60006106d78582860161069d565b92505060206106e88582860161069d565b9150509250929050565b600081519050919050565b600082825260208201905092915050565b60005b8381101561072c578082015181840152602081019050610711565b60008484015250505050565b6000601f19601f8301169050919050565b6000610754826106f2565b61075e81856106fd565b935061076e81856020860161070e565b61077781610738565b840191505092915050565b6000602082019050818103600083015261079c8184610749565b905092915050565b600073ffffffffffffffffffffffffffffffffffffffff82169050919050565b60006107cf826107a4565b9050919050565b6107df816107c4565b82525050565b60006020820190506107fa60008301846107d6565b92915050565b6000819050919050565b600061082561082061081b846107a4565b610800565b6107a4565b9050919050565b60006108378261080a565b9050919050565b60006108498261082c565b9050919050565b6108598161083e565b82525050565b60006020820190506108746000830184610850565b92915050565b6000602082840312156108905761088f610677565b5b600061089e8482850161069d565b91505092915050565b6108b08161067c565b82525050565b60006080820190506108cb60008301876108a7565b6108d860208301866107d6565b6108e560408301856108a7565b6108f260608301846108a7565b95945050505050565b600081519050919050565b600082825260208201905092915050565b6000819050602082019050919050565b6109308161067c565b82525050565b61093f816107c4565b82525050565b60808201600082015161095b6000850182610927565b50602082015161096e6020850182610936565b5060408201516109816040850182610927565b5060608201516109946060850182610927565b50505050565b60006109a68383610945565b60808301905092915050565b6000602082019050919050565b60006109ca826108fb565b6109d48185610906565b93506109df83610917565b8060005b83811015610a105781516109f7888261099a565b9750610a02836109b2565b9250506001810190506109e3565b5085935050505092915050565b60006020820190508181036000830152610a3781846109bf565b905092915050565b600081519050610a4e81610686565b92915050565b600060208284031215610a6a57610a69610677565b5b6000610a7884828501610a3f565b91505092915050565b6000606082019050610a9660008301866107d6565b610aa360208301856107d6565b610ab060408301846108a7565b949350505050565b7f4e487b7100000000000000000000000000000000000000000000000000000000600052604160045260246000fd5b7f4e487b7100000000000000000000000000000000000000000000000000000000600052603260045260246000fd5b7f4e487b7100000000000000000000000000000000000000000000000000000000600052601160045260246000fd5b6000610b508261067c565b91507fffffffffffffffffffffffffffffffffffffffffffffffffffffffffffffffff8203610b8257610b81610b16565b5b60018201905091905056fea2646970667358221220cfd58338de789b5f53d9b242cbc6a9ab4ccbdb871c99a55716767a61ac64352564736f6c6343000814003360806040523480156200001157600080fd5b5060405162001d3438038062001d348339818101604052810190620000379190620001fa565b818181600390816200004a9190620004ca565b5080600490816200005c9190620004ca565b5050505050620005b1565b6000604051905090565b600080fd5b600080fd5b600080fd5b600080fd5b6000601f19601f8301169050919050565b7f4e487b7100000000000000000000000000000000000000000000000000000000600052604160045260246000fd5b620000d08262000085565b810181811067ffffffffffffffff82111715620000f257620000f162000096565b5b80604052505050565b60006200010762000067565b9050620001158282620000c5565b919050565b600067ffffffffffffffff82111562000138576200013762000096565b5b620001438262000085565b9050602081019050919050565b60005b838110156200017057808201518184015260208101905062000153565b60008484015250505050565b6000620001936200018d846200011a565b620000fb565b905082815260208101848484011115620001b257620001b162000080565b5b620001bf84828562000150565b509392505050565b600082601f830112620001df57620001de6200007b565b5b8151620001f18482602086016200017c565b91505092915050565b6000806040838503121562000214576200021362000071565b5b600083015167ffffffffffffffff81111562000235576200023462000076565b5b6200024385828601620001c7565b925050602083015167ffffffffffffffff81111562000267576200026662000076565b5b6200027585828601620001c7565b9150509250929050565b600081519050919050565b7f4e487b7100000000000000000000000000000000000000000000000000000000600052602260045260246000fd5b60006002820490506001821680620002d257607f821691505b602082108103620002e857620002e76200028a565b5b50919050565b60008190508160005260206000209050919050565b60006020601f8301049050919050565b600082821b905092915050565b600060088302620003527fffffffffffffffffffffffffffffffffffffffffffffffffffffffffffffffff8262000313565b6200035e868362000313565b95508019841693508086168417925050509392505050565b6000819050919050565b6000819050919050565b6000620003ab620003a56200039f8462000376565b62000380565b62000376565b9050919050565b6000819050919050565b620003c7836200038a565b620003df620003d682620003b2565b84845462000320565b825550505050565b600090565b620003f6620003e7565b62000403818484620003bc565b505050565b5b818110156200042b576200041f600082620003ec565b60018101905062000409565b5050565b601f8211156200047a576200044481620002ee565b6200044f8462000303565b810160208510156200045f578190505b620004776200046e8562000303565b83018262000408565b50505b505050565b600082821c905092915050565b60006200049f600019846008026200047f565b1980831691505092915050565b6000620004ba83836200048c565b9150826002028217905092915050565b620004d5826200027f565b67ffffffffffffffff811115620004f157620004f062000096565b5b620004fd8254620002b9565b6200050a8282856200042f565b600060209050601f8311600181146200054257600084156200052d578287015190505b620005398582620004ac565b865550620005a9565b601f1984166200055286620002ee565b60005b828110156200057c5784890151825560018201915060208501945060208101905062000555565b868310156200059c578489015162000598601f8916826200048c565b8355505b6001600288020188555050505b505050505050565b61177380620005c16000396000f3fe608060405234801561001057600080fd5b50600436106100cf5760003560e01c8063395093511161008c578063a457c2d711610066578063a457c2d714610228578063a9059cbb14610258578063dd62ed3e14610288578063eb8571c8146102b8576100cf565b806339509351146101aa57806370a08231146101da57806395d89b411461020a576100cf565b806306fdde03146100d4578063095ea7b3146100f257806318160ddd1461012257806321860a051461014057806323b872dd1461015c578063313ce5671461018c575b600080fd5b6100dc6102d4565b6040516100e99190610ef8565b60405180910390f35b61010c60048036038101906101079190610fb3565b610366565b604051610119919061100e565b60405180910390f35b61012a610384565b6040516101379190611038565b60405180910390f35b61015a60048036038101906101559190611053565b61038e565b005b61017660048036038101906101719190611080565b610488565b604051610183919061100e565b60405180910390f35b610194610589565b6040516101a191906110ef565b60405180910390f35b6101c460048036038101906101bf9190610fb3565b610592565b6040516101d1919061100e565b60405180910390f35b6101f460048036038101906101ef9190611053565b61063e565b6040516102019190611038565b60405180910390f35b610212610686565b60405161021f9190610ef8565b60405180910390f35b610242600480360381019061023d9190610fb3565b610718565b60405161024f919061100e565b60405180910390f35b610272600480360381019061026d9190610fb3565b61080c565b60405161027f919061100e565b60405180910390f35b6102a2600480360381019061029d919061110a565b61082a565b6040516102af9190611038565b60405180910390f35b6102d260048036038101906102cd9190611080565b6108b1565b005b6060600380546102e390611179565b80601f016020809104026020016040519081016040528092919081815260200182805461030f90611179565b801561035c5780601f106103315761010080835404028352916020019161035c565b820191906000526020600020905b81548152906001019060200180831161033f57829003601f168201915b5050505050905090565b600061037a6103736108c2565b84846108ca565b6001905092915050565b6000600254905090565b60001515600560008373ffffffffffffffffffffffffffffffffffffffff1673ffffffffffffffffffffffffffffffffffffffff16815260200190815260200160002060009054906101000a900460ff16151514610421576040517f08c379a00000000000000000000000000000000000000000000000000000000081526004016104189061121c565b60405180910390fd5b61042d81612710610a93565b6001600560008373ffffffffffffffffffffffffffffffffffffffff1673ffffffffffffffffffffffffffffffffffffffff16815260200190815260200160002060006101000a81548160ff02191690831515021790555050565b6000610495848484610be6565b6000600160008673ffffffffffffffffffffffffffffffffffffffff1673ffffffffffffffffffffffffffffffffffffffff16815260200190815260200160002060006104e06108c2565b73ffffffffffffffffffffffffffffffffffffffff1673ffffffffffffffffffffffffffffffffffffffff16815260200190815260200160002054905082811015610560576040517f08c379a0000000000000000000000000000000000000000000000000000000008152600401610557906112ae565b60405180910390fd5b61057d8561056c6108c2565b858461057891906112fd565b6108ca565b60019150509392505050565b60006012905090565b600061063461059f6108c2565b8484600160006105ad6108c2565b73ffffffffffffffffffffffffffffffffffffffff1673ffffffffffffffffffffffffffffffffffffffff16815260200190815260200160002060008873ffffffffffffffffffffffffffffffffffffffff1673ffffffffffffffffffffffffffffffffffffffff1681526020019081526020016000205461062f9190611331565b6108ca565b6001905092915050565b60008060008373ffffffffffffffffffffffffffffffffffffffff1673ffffffffffffffffffffffffffffffffffffffff168152602001908152602001600020549050919050565b60606004805461069590611179565b80601f01602080910402602001604051908101604052809291908181526020018280546106c190611179565b801561070e5780601f106106e35761010080835404028352916020019161070e565b820191906000526020600020905b8154815290600101906020018083116106f157829003601f168201915b5050505050905090565b600080600160006107276108c2565b73ffffffffffffffffffffffffffffffffffffffff1673ffffffffffffffffffffffffffffffffffffffff16815260200190815260200160002060008573ffffffffffffffffffffffffffffffffffffffff1673ffffffffffffffffffffffffffffffffffffffff168152602001908152602001600020549050828110156107e4576040517f08c379a00000000000000000000000000000000000000000000000000000000081526004016107db906113d7565b60405180910390fd5b6108016107ef6108c2565b8585846107fc91906112fd565b6108ca565b600191505092915050565b60006108206108196108c2565b8484610be6565b6001905092915050565b6000600160008473ffffffffffffffffffffffffffffffffffffffff1673ffffffffffffffffffffffffffffffffffffffff16815260200190815260200160002060008373ffffffffffffffffffffffffffffffffffffffff1673ffffffffffffffffffffffffffffffffffffffff16815260200190815260200160002054905092915050565b6108bc838383610488565b50505050565b600033905090565b600073ffffffffffffffffffffffffffffffffffffffff168373ffffffffffffffffffffffffffffffffffffffff1603610939576040517f08c379a000000000000000000000000000000000000000000000000000000000815260040161093090611469565b60405180910390fd5b600073ffffffffffffffffffffffffffffffffffffffff168273ffffffffffffffffffffffffffffffffffffffff16036109a8576040517f08c379a000000000000000000000000000000000000000000000000000000000815260040161099f906114fb565b60405180910390fd5b80600160008573ffffffffffffffffffffffffffffffffffffffff1673ffffffffffffffffffffffffffffffffffffffff16815260200190815260200160002060008473ffffffffffffffffffffffffffffffffffffffff1673ffffffffffffffffffffffffffffffffffffffff168152602001908152602001600020819055508173ffffffffffffffffffffffffffffffffffffffff168373ffffffffffffffffffffffffffffffffffffffff167f8c5be1e5ebec7d5bd14f71427d1e84f3dd0314c0f7b2291e5b200ac8c7c3b92583604051610a869190611038565b60405180910390a3505050565b600073ffffffffffffffffffffffffffffffffffffffff168273ffffffffffffffffffffffffffffffffffffffff1603610b02576040517f08c379a0000000000000000000000000000000000000000000000000000000008152600401610af990611567565b60405180910390fd5b610b0e60008383610e63565b8060026000828254610b209190611331565b92505081905550806000808473ffffffffffffffffffffffffffffffffffffffff1673ffffffffffffffffffffffffffffffffffffffff1681526020019081526020016000206000828254610b759190611331565b925050819055508173ffffffffffffffffffffffffffffffffffffffff16600073ffffffffffffffffffffffffffffffffffffffff167fddf252ad1be2c89b69c2b068fc378daa952ba7f163c4a11628f55a4df523b3ef83604051610bda9190611038565b60405180910390a35050565b600073ffffffffffffffffffffffffffffffffffffffff168373ffffffffffffffffffffffffffffffffffffffff1603610c55576040517f08c379a0000000000000000000000000000000000000000000000000000000008152600401610c4c906115f9565b60405180910390fd5b600073ffffffffffffffffffffffffffffffffffffffff168273ffffffffffffffffffffffffffffffffffffffff1603610cc4576040517f08c379a0000000000000000000000000000000000000000000000000000000008152600401610cbb9061168b565b60405180910390fd5b610ccf838383610e63565b60008060008573ffffffffffffffffffffffffffffffffffffffff1673ffffffffffffffffffffffffffffffffffffffff16815260200190815260200160002054905081811015610d55576040517f08c379a0000000000000000000000000000000000000000000000000000000008152600401610d4c9061171d565b60405180910390fd5b8181610d6191906112fd565b6000808673ffffffffffffffffffffffffffffffffffffffff1673ffffffffffffffffffffffffffffffffffffffff16815260200190815260200160002081905550816000808573ffffffffffffffffffffffffffffffffffffffff1673ffffffffffffffffffffffffffffffffffffffff1681526020019081526020016000206000828254610df19190611331565b925050819055508273ffffffffffffffffffffffffffffffffffffffff168473ffffffffffffffffffffffffffffffffffffffff167fddf252ad1be2c89b69c2b068fc378daa952ba7f163c4a11628f55a4df523b3ef84604051610e559190611038565b60405180910390a350505050565b505050565b600081519050919050565b600082825260208201905092915050565b60005b83811015610ea2578082015181840152602081019050610e87565b60008484015250505050565b6000601f19601f8301169050919050565b6000610eca82610e68565b610ed48185610e73565b9350610ee4818560208601610e84565b610eed81610eae565b840191505092915050565b60006020820190508181036000830152610f128184610ebf565b905092915050565b600080fd5b600073ffffffffffffffffffffffffffffffffffffffff82169050919050565b6000610f4a82610f1f565b9050919050565b610f5a81610f3f565b8114610f6557600080fd5b50565b600081359050610f7781610f51565b92915050565b6000819050919050565b610f9081610f7d565b8114610f9b57600080fd5b50565b600081359050610fad81610f87565b92915050565b60008060408385031215610fca57610fc9610f1a565b5b6000610fd885828601610f68565b9250506020610fe985828601610f9e565b9150509250929050565b60008115159050919050565b61100881610ff3565b82525050565b60006020820190506110236000830184610fff565b92915050565b61103281610f7d565b82525050565b600060208201905061104d6000830184611029565b92915050565b60006020828403121561106957611068610f1a565b5b600061107784828501610f68565b91505092915050565b60008060006060848603121561109957611098610f1a565b5b60006110a786828701610f68565b93505060206110b886828701610f68565b92505060406110c986828701610f9e565b9150509250925092565b600060ff82169050919050565b6110e9816110d3565b82525050565b600060208201905061110460008301846110e0565b92915050565b6000806040838503121561112157611120610f1a565b5b600061112f85828601610f68565b925050602061114085828601610f68565b9150509250929050565b7f4e487b7100000000000000000000000000000000000000000000000000000000600052602260045260246000fd5b6000600282049050600182168061119157607f821691505b6020821081036111a4576111a361114a565b5b50919050565b7f5468697320757365722068617320636c61696d65642061697264726f7020616c60008201527f7265616479000000000000000000000000000000000000000000000000000000602082015250565b6000611206602583610e73565b9150611211826111aa565b604082019050919050565b60006020820190508181036000830152611235816111f9565b9050919050565b7f45524332303a207472616e7366657220616d6f756e742065786365656473206160008201527f6c6c6f77616e6365000000000000000000000000000000000000000000000000602082015250565b6000611298602883610e73565b91506112a38261123c565b604082019050919050565b600060208201905081810360008301526112c78161128b565b9050919050565b7f4e487b7100000000000000000000000000000000000000000000000000000000600052601160045260246000fd5b600061130882610f7d565b915061131383610f7d565b925082820390508181111561132b5761132a6112ce565b5b92915050565b600061133c82610f7d565b915061134783610f7d565b925082820190508082111561135f5761135e6112ce565b5b92915050565b7f45524332303a2064656372656173656420616c6c6f77616e63652062656c6f7760008201527f207a65726f000000000000000000000000000000000000000000000000000000602082015250565b60006113c1602583610e73565b91506113cc82611365565b604082019050919050565b600060208201905081810360008301526113f0816113b4565b9050919050565b7f45524332303a20617070726f76652066726f6d20746865207a65726f2061646460008201527f7265737300000000000000000000000000000000000000000000000000000000602082015250565b6000611453602483610e73565b915061145e826113f7565b604082019050919050565b6000602082019050818103600083015261148281611446565b9050919050565b7f45524332303a20617070726f766520746f20746865207a65726f20616464726560008201527f7373000000000000000000000000000000000000000000000000000000000000602082015250565b60006114e5602283610e73565b91506114f082611489565b604082019050919050565b60006020820190508181036000830152611514816114d8565b9050919050565b7f45524332303a206d696e7420746f20746865207a65726f206164647265737300600082015250565b6000611551601f83610e73565b915061155c8261151b565b602082019050919050565b6000602082019050818103600083015261158081611544565b9050919050565b7f45524332303a207472616e736665722066726f6d20746865207a65726f20616460008201527f6472657373000000000000000000000000000000000000000000000000000000602082015250565b60006115e3602583610e73565b91506115ee82611587565b604082019050919050565b60006020820190508181036000830152611612816115d6565b9050919050565b7f45524332303a207472616e7366657220746f20746865207a65726f206164647260008201527f6573730000000000000000000000000000000000000000000000000000000000602082015250565b6000611675602383610e73565b915061168082611619565b604082019050919050565b600060208201905081810360008301526116a481611668565b9050919050565b7f45524332303a207472616e7366657220616d6f756e742065786365656473206260008201527f616c616e63650000000000000000000000000000000000000000000000000000602082015250565b6000611707602683610e73565b9150611712826116ab565b604082019050919050565b60006020820190508181036000830152611736816116fa565b905091905056fea26469706673582212207597b5948990ac0a9174b0fe86eb26d4970b9384dc47ff2a492ef9ade66acc1164736f6c63430008140033",
  "linkReferences": {},
  "deployedLinkReferences": {}
}